{
  "_format": "hh-sol-artifact-1",
  "contractName": "WolfPack",
  "sourceName": "contracts/WolfPack.sol",
  "abi": [
    {
      "anonymous": false,
      "inputs": [
        {
          "indexed": true,
          "internalType": "address",
          "name": "owner",
          "type": "address"
        },
        {
          "indexed": true,
          "internalType": "address",
          "name": "approved",
          "type": "address"
        },
        {
          "indexed": true,
          "internalType": "uint256",
          "name": "tokenId",
          "type": "uint256"
        }
      ],
      "name": "Approval",
      "type": "event"
    },
    {
      "anonymous": false,
      "inputs": [
        {
          "indexed": true,
          "internalType": "address",
          "name": "owner",
          "type": "address"
        },
        {
          "indexed": true,
          "internalType": "address",
          "name": "operator",
          "type": "address"
        },
        {
          "indexed": false,
          "internalType": "bool",
          "name": "approved",
          "type": "bool"
        }
      ],
      "name": "ApprovalForAll",
      "type": "event"
    },
    {
      "anonymous": false,
      "inputs": [
        {
          "indexed": true,
          "internalType": "uint256",
          "name": "tokenId",
          "type": "uint256"
        },
        {
          "indexed": true,
          "internalType": "address",
          "name": "minter",
          "type": "address"
        }
      ],
      "name": "Mint",
      "type": "event"
    },
    {
      "anonymous": false,
      "inputs": [
        {
          "indexed": true,
          "internalType": "address",
          "name": "previousOwner",
          "type": "address"
        },
        {
          "indexed": true,
          "internalType": "address",
          "name": "newOwner",
          "type": "address"
        }
      ],
      "name": "OwnershipTransferred",
      "type": "event"
    },
    {
      "anonymous": false,
      "inputs": [
        {
          "indexed": true,
          "internalType": "address",
          "name": "from",
          "type": "address"
        },
        {
          "indexed": true,
          "internalType": "address",
          "name": "to",
          "type": "address"
        },
        {
          "indexed": true,
          "internalType": "uint256",
          "name": "tokenId",
          "type": "uint256"
        }
      ],
      "name": "Transfer",
      "type": "event"
    },
    {
      "inputs": [
        {
          "internalType": "address",
          "name": "_addr",
          "type": "address"
        }
      ],
      "name": "addBlacklist",
      "outputs": [],
      "stateMutability": "nonpayable",
      "type": "function"
    },
    {
      "inputs": [
        {
          "internalType": "address[]",
          "name": "_addresses",
          "type": "address[]"
        }
      ],
      "name": "airdropNFT",
      "outputs": [],
      "stateMutability": "nonpayable",
      "type": "function"
    },
    {
      "inputs": [
        {
          "internalType": "address",
          "name": "to",
          "type": "address"
        },
        {
          "internalType": "uint256",
          "name": "tokenId",
          "type": "uint256"
        }
      ],
      "name": "approve",
      "outputs": [],
      "stateMutability": "nonpayable",
      "type": "function"
    },
    {
      "inputs": [
        {
          "internalType": "address",
          "name": "owner",
          "type": "address"
        }
      ],
      "name": "balanceOf",
      "outputs": [
        {
          "internalType": "uint256",
          "name": "",
          "type": "uint256"
        }
      ],
      "stateMutability": "view",
      "type": "function"
    },
    {
      "inputs": [
        {
          "internalType": "uint256",
          "name": "tokenId",
          "type": "uint256"
        }
      ],
      "name": "getApproved",
      "outputs": [
        {
          "internalType": "address",
          "name": "",
          "type": "address"
        }
      ],
      "stateMutability": "view",
      "type": "function"
    },
    {
      "inputs": [
        {
          "internalType": "address",
          "name": "_owner",
          "type": "address"
        }
      ],
      "name": "getOwnerTokenBalance",
      "outputs": [
        {
          "internalType": "uint256",
          "name": "",
          "type": "uint256"
        }
      ],
      "stateMutability": "view",
      "type": "function"
    },
    {
      "inputs": [],
      "name": "getSupply",
      "outputs": [
        {
          "internalType": "uint256",
          "name": "",
          "type": "uint256"
        }
      ],
      "stateMutability": "view",
      "type": "function"
    },
    {
      "inputs": [
        {
          "internalType": "uint256",
          "name": "_tokenId",
          "type": "uint256"
        }
      ],
      "name": "getTokenHolder",
      "outputs": [
        {
          "internalType": "address",
          "name": "",
          "type": "address"
        }
      ],
      "stateMutability": "view",
      "type": "function"
    },
    {
      "inputs": [],
      "name": "getTokenHolders",
      "outputs": [
        {
          "internalType": "address[]",
          "name": "result",
          "type": "address[]"
        }
      ],
      "stateMutability": "view",
      "type": "function"
    },
    {
      "inputs": [
        {
          "internalType": "uint256",
          "name": "_tokenId",
          "type": "uint256"
        }
      ],
      "name": "getTokenMinter",
      "outputs": [
        {
          "internalType": "address",
          "name": "",
          "type": "address"
        }
      ],
      "stateMutability": "view",
      "type": "function"
    },
    {
      "inputs": [],
      "name": "getTokenMinters",
      "outputs": [
        {
          "internalType": "address[]",
          "name": "result",
          "type": "address[]"
        }
      ],
      "stateMutability": "view",
      "type": "function"
    },
    {
      "inputs": [
        {
          "internalType": "address[]",
          "name": "_whitelisted",
          "type": "address[]"
        },
        {
          "internalType": "address[]",
          "name": "_airDrop",
          "type": "address[]"
        }
      ],
      "name": "initialize",
      "outputs": [],
      "stateMutability": "nonpayable",
      "type": "function"
    },
    {
      "inputs": [
        {
          "internalType": "address",
          "name": "owner",
          "type": "address"
        },
        {
          "internalType": "address",
          "name": "operator",
          "type": "address"
        }
      ],
      "name": "isApprovedForAll",
      "outputs": [
        {
          "internalType": "bool",
          "name": "",
          "type": "bool"
        }
      ],
      "stateMutability": "view",
      "type": "function"
    },
    {
      "inputs": [
        {
          "internalType": "uint8",
          "name": "_amount",
          "type": "uint8"
        }
      ],
      "name": "mint",
      "outputs": [],
      "stateMutability": "payable",
      "type": "function"
    },
    {
      "inputs": [
        {
          "internalType": "address",
          "name": "_to",
          "type": "address"
        },
        {
          "internalType": "uint256",
          "name": "_amount",
          "type": "uint256"
        }
      ],
      "name": "mintFromReserve",
      "outputs": [],
      "stateMutability": "nonpayable",
      "type": "function"
    },
    {
      "inputs": [],
      "name": "name",
      "outputs": [
        {
          "internalType": "string",
          "name": "",
          "type": "string"
        }
      ],
      "stateMutability": "view",
      "type": "function"
    },
    {
      "inputs": [],
      "name": "owner",
      "outputs": [
        {
          "internalType": "address",
          "name": "",
          "type": "address"
        }
      ],
      "stateMutability": "view",
      "type": "function"
    },
    {
      "inputs": [
        {
          "internalType": "uint256",
          "name": "tokenId",
          "type": "uint256"
        }
      ],
      "name": "ownerOf",
      "outputs": [
        {
          "internalType": "address",
          "name": "",
          "type": "address"
        }
      ],
      "stateMutability": "view",
      "type": "function"
    },
    {
      "inputs": [
        {
          "internalType": "uint8",
          "name": "_amount",
          "type": "uint8"
        }
      ],
      "name": "preMint",
      "outputs": [],
      "stateMutability": "payable",
      "type": "function"
    },
    {
      "inputs": [],
      "name": "preSaleState",
      "outputs": [
        {
          "internalType": "bool",
          "name": "",
          "type": "bool"
        }
      ],
      "stateMutability": "view",
      "type": "function"
    },
    {
      "inputs": [],
      "name": "renounceOwnership",
      "outputs": [],
      "stateMutability": "nonpayable",
      "type": "function"
    },
    {
      "inputs": [
        {
          "internalType": "uint256",
          "name": "tokenId",
          "type": "uint256"
        },
        {
          "internalType": "uint256",
          "name": "salePrice",
          "type": "uint256"
        }
      ],
      "name": "royaltyInfo",
      "outputs": [
        {
          "internalType": "address",
          "name": "receiver",
          "type": "address"
        },
        {
          "internalType": "uint256",
          "name": "royaltyAmount",
          "type": "uint256"
        }
      ],
      "stateMutability": "view",
      "type": "function"
    },
    {
      "inputs": [
        {
          "internalType": "address",
          "name": "from",
          "type": "address"
        },
        {
          "internalType": "address",
          "name": "to",
          "type": "address"
        },
        {
          "internalType": "uint256",
          "name": "tokenId",
          "type": "uint256"
        }
      ],
      "name": "safeTransferFrom",
      "outputs": [],
      "stateMutability": "nonpayable",
      "type": "function"
    },
    {
      "inputs": [
        {
          "internalType": "address",
          "name": "from",
          "type": "address"
        },
        {
          "internalType": "address",
          "name": "to",
          "type": "address"
        },
        {
          "internalType": "uint256",
          "name": "tokenId",
          "type": "uint256"
        },
        {
          "internalType": "bytes",
          "name": "_data",
          "type": "bytes"
        }
      ],
      "name": "safeTransferFrom",
      "outputs": [],
      "stateMutability": "nonpayable",
      "type": "function"
    },
    {
      "inputs": [],
      "name": "saleState",
      "outputs": [
        {
          "internalType": "bool",
          "name": "",
          "type": "bool"
        }
      ],
      "stateMutability": "view",
      "type": "function"
    },
    {
      "inputs": [
        {
          "internalType": "address",
          "name": "operator",
          "type": "address"
        },
        {
          "internalType": "bool",
          "name": "approved",
          "type": "bool"
        }
      ],
      "name": "setApprovalForAll",
      "outputs": [],
      "stateMutability": "nonpayable",
      "type": "function"
    },
    {
      "inputs": [
        {
          "internalType": "string",
          "name": "cid",
          "type": "string"
        }
      ],
      "name": "setBaseURIcid",
      "outputs": [],
      "stateMutability": "nonpayable",
      "type": "function"
    },
    {
      "inputs": [
        {
          "internalType": "address[]",
          "name": "_minters",
          "type": "address[]"
        },
        {
          "internalType": "uint256[]",
          "name": "_tokenId",
          "type": "uint256[]"
        }
      ],
      "name": "setMinters",
      "outputs": [],
      "stateMutability": "nonpayable",
      "type": "function"
    },
    {
      "inputs": [
        {
          "internalType": "address",
          "name": "newRoyaltiesReceiver",
          "type": "address"
        }
      ],
      "name": "setRoyaltiesReceiver",
      "outputs": [],
      "stateMutability": "nonpayable",
      "type": "function"
    },
    {
      "inputs": [
        {
          "internalType": "bytes4",
          "name": "interfaceId",
          "type": "bytes4"
        }
      ],
      "name": "supportsInterface",
      "outputs": [
        {
          "internalType": "bool",
          "name": "",
          "type": "bool"
        }
      ],
      "stateMutability": "view",
      "type": "function"
    },
    {
      "inputs": [],
      "name": "symbol",
      "outputs": [
        {
          "internalType": "string",
          "name": "",
          "type": "string"
        }
      ],
      "stateMutability": "view",
      "type": "function"
    },
    {
      "inputs": [],
      "name": "togglePreSaleState",
      "outputs": [],
      "stateMutability": "nonpayable",
      "type": "function"
    },
    {
      "inputs": [],
      "name": "toggleSaleState",
      "outputs": [],
      "stateMutability": "nonpayable",
      "type": "function"
    },
    {
      "inputs": [
        {
          "internalType": "uint256",
          "name": "tokenId",
          "type": "uint256"
        }
      ],
      "name": "tokenURI",
      "outputs": [
        {
          "internalType": "string",
          "name": "",
          "type": "string"
        }
      ],
      "stateMutability": "view",
      "type": "function"
    },
    {
      "inputs": [
        {
          "internalType": "address",
          "name": "from",
          "type": "address"
        },
        {
          "internalType": "address",
          "name": "to",
          "type": "address"
        },
        {
          "internalType": "uint256",
          "name": "tokenId",
          "type": "uint256"
        }
      ],
      "name": "transferFrom",
      "outputs": [],
      "stateMutability": "nonpayable",
      "type": "function"
    },
    {
      "inputs": [
        {
          "internalType": "address",
          "name": "newOwner",
          "type": "address"
        }
      ],
      "name": "transferOwnership",
      "outputs": [],
      "stateMutability": "nonpayable",
      "type": "function"
    },
    {
      "inputs": [
        {
          "internalType": "address[]",
          "name": "_to",
          "type": "address[]"
        }
      ],
      "name": "whitelistBatch",
      "outputs": [],
      "stateMutability": "nonpayable",
      "type": "function"
    },
    {
      "inputs": [
        {
          "internalType": "address payable",
          "name": "_address",
          "type": "address"
        }
      ],
      "name": "withdraw",
      "outputs": [],
      "stateMutability": "nonpayable",
      "type": "function"
    }
  ],
  "bytecode": "0x608060405234801561001057600080fd5b50615e2180620000216000396000f3fe6080604052600436106102255760003560e01c80638da5cb5b11610123578063ca55954c116100ab578063daaeec861161006f578063daaeec86146107f8578063e93244441461080f578063e985e9c51461083a578063eaa5352314610877578063f2fde38b146108a057610225565b8063ca55954c14610713578063d0e4f39614610750578063d10a45351461078d578063d4042c95146107b8578063d91f1ad4146107e157610225565b8063a22cb465116100f2578063a22cb46514610632578063a8d9949d1461065b578063b514371514610684578063b88d4fde146106ad578063c87b56dd146106d657610225565b80638da5cb5b1461058a57806395d89b41146105b55780639878ca1d146105e05780639cfe42da1461060957610225565b806351cff8d9116101b15780636ecd2306116101755780636ecd2306146104c657806370a08231146104e2578063715018a61461051f57806373cf25f814610536578063876b15661461055f57610225565b806351cff8d9146103e15780635bc00f411461040a578063603f4d52146104335780636352211e1461045e5780636c9c2faf1461049b57610225565b806314ae762a116101f857806314ae762a146102f857806323b872dd146103355780632a55205a1461035e57806337a747bf1461039c57806342842e0e146103b857610225565b806301ffc9a71461022a57806306fdde0314610267578063081812fc14610292578063095ea7b3146102cf575b600080fd5b34801561023657600080fd5b50610251600480360381019061024c919061454b565b6108c9565b60405161025e91906153f3565b60405180910390f35b34801561027357600080fd5b5061027c610943565b604051610289919061540e565b60405180910390f35b34801561029e57600080fd5b506102b960048036038101906102b491906145e2565b6109d5565b6040516102c69190615341565b60405180910390f35b3480156102db57600080fd5b506102f660048036038101906102f191906143ed565b610a5a565b005b34801561030457600080fd5b5061031f600480360381019061031a9190614259565b610b72565b60405161032c91906157b0565b60405180910390f35b34801561034157600080fd5b5061035c600480360381019061035791906142e7565b610b84565b005b34801561036a57600080fd5b506103856004803603810190610380919061460b565b610be4565b6040516103939291906153a8565b60405180910390f35b6103b660048036038101906103b19190614647565b610c76565b005b3480156103c457600080fd5b506103df60048036038101906103da91906142e7565b610eff565b005b3480156103ed57600080fd5b5061040860048036038101906104039190614282565b610f1f565b005b34801561041657600080fd5b50610431600480360381019061042c919061449e565b610fe5565b005b34801561043f57600080fd5b50610448611209565b60405161045591906153f3565b60405180910390f35b34801561046a57600080fd5b50610485600480360381019061048091906145e2565b611220565b6040516104929190615341565b60405180910390f35b3480156104a757600080fd5b506104b06112d2565b6040516104bd91906157b0565b60405180910390f35b6104e060048036038101906104db9190614647565b6112e3565b005b3480156104ee57600080fd5b5061050960048036038101906105049190614259565b6114f8565b60405161051691906157b0565b60405180910390f35b34801561052b57600080fd5b506105346115b0565b005b34801561054257600080fd5b5061055d60048036038101906105589190614429565b611638565b005b34801561056b57600080fd5b5061057461189f565b60405161058191906153d1565b60405180910390f35b34801561059657600080fd5b5061059f611a41565b6040516105ac9190615341565b60405180910390f35b3480156105c157600080fd5b506105ca611a6b565b6040516105d7919061540e565b60405180910390f35b3480156105ec57600080fd5b50610607600480360381019061060291906143ed565b611afd565b005b34801561061557600080fd5b50610630600480360381019061062b9190614259565b611cfd565b005b34801561063e57600080fd5b50610659600480360381019061065491906143b1565b611dd4565b005b34801561066757600080fd5b50610682600480360381019061067d919061459d565b611f55565b005b34801561069057600080fd5b506106ab60048036038101906106a69190614259565b611fe7565b005b3480156106b957600080fd5b506106d460048036038101906106cf9190614336565b612102565b005b3480156106e257600080fd5b506106fd60048036038101906106f891906145e2565b612164565b60405161070a919061540e565b60405180910390f35b34801561071f57600080fd5b5061073a600480360381019061073591906145e2565b612215565b6040516107479190615341565b60405180910390f35b34801561075c57600080fd5b50610777600480360381019061077291906145e2565b612252565b6040516107849190615341565b60405180910390f35b34801561079957600080fd5b506107a261228f565b6040516107af91906153d1565b60405180910390f35b3480156107c457600080fd5b506107df60048036038101906107da91906144df565b612431565b005b3480156107ed57600080fd5b506107f66125e7565b005b34801561080457600080fd5b5061080d6126b5565b005b34801561081b57600080fd5b5061082461275d565b60405161083191906153f3565b60405180910390f35b34801561084657600080fd5b50610861600480360381019061085c91906142ab565b612774565b60405161086e91906153f3565b60405180910390f35b34801561088357600080fd5b5061089e6004803603810190610899919061449e565b612808565b005b3480156108ac57600080fd5b506108c760048036038101906108c29190614259565b61293f565b005b60007f2a55205a000000000000000000000000000000000000000000000000000000007bffffffffffffffffffffffffffffffffffffffffffffffffffffffff1916827bffffffffffffffffffffffffffffffffffffffffffffffffffffffff1916148061093c575061093b82612a37565b5b9050919050565b60606097805461095290615b97565b80601f016020809104026020016040519081016040528092919081815260200182805461097e90615b97565b80156109cb5780601f106109a0576101008083540402835291602001916109cb565b820191906000526020600020905b8154815290600101906020018083116109ae57829003601f168201915b5050505050905090565b60006109e082612b19565b610a1f576040517f08c379a0000000000000000000000000000000000000000000000000000000008152600401610a16906156b0565b60405180910390fd5b609b600083815260200190815260200160002060009054906101000a900473ffffffffffffffffffffffffffffffffffffffff169050919050565b6000610a6582611220565b90508073ffffffffffffffffffffffffffffffffffffffff168373ffffffffffffffffffffffffffffffffffffffff161415610ad6576040517f08c379a0000000000000000000000000000000000000000000000000000000008152600401610acd90615750565b60405180910390fd5b8073ffffffffffffffffffffffffffffffffffffffff16610af5612b85565b73ffffffffffffffffffffffffffffffffffffffff161480610b245750610b2381610b1e612b85565b612774565b5b610b63576040517f08c379a0000000000000000000000000000000000000000000000000000000008152600401610b5a906155b0565b60405180910390fd5b610b6d8383612b8d565b505050565b6000610b7d826114f8565b9050919050565b610b95610b8f612b85565b82612c46565b610bd4576040517f08c379a0000000000000000000000000000000000000000000000000000000008152600401610bcb90615770565b60405180910390fd5b610bdf838383612d24565b505050565b600080610bf084612b19565b610c2f576040517f08c379a0000000000000000000000000000000000000000000000000000000008152600401610c2690615790565b60405180910390fd5b60cb60069054906101000a900473ffffffffffffffffffffffffffffffffffffffff166064600785610c61919061599c565b610c6b919061596b565b915091509250929050565b60ce60003373ffffffffffffffffffffffffffffffffffffffff1673ffffffffffffffffffffffffffffffffffffffff16815260200190815260200160002060009054906101000a900460ff16610d02576040517f08c379a0000000000000000000000000000000000000000000000000000000008152600401610cf990615670565b60405180910390fd5b60cf60003373ffffffffffffffffffffffffffffffffffffffff1673ffffffffffffffffffffffffffffffffffffffff16815260200190815260200160002060009054906101000a900460ff1615610d8f576040517f08c379a0000000000000000000000000000000000000000000000000000000008152600401610d8690615710565b60405180910390fd5b60cb60049054906101000a900460ff16610dde576040517f08c379a0000000000000000000000000000000000000000000000000000000008152600401610dd590615590565b60405180910390fd5b60008160ff16118015610df5575060038160ff1611155b610e34576040517f08c379a0000000000000000000000000000000000000000000000000000000008152600401610e2b90615430565b60405180910390fd5b6105dc8160ff16610e4560c9612d86565b610e4f9190615915565b1115610e90576040517f08c379a0000000000000000000000000000000000000000000000000000000008152600401610e8790615690565b60405180910390fd5b8060ff1667016345785d8a0000610ea791906159f6565b67ffffffffffffffff163414610ef2576040517f08c379a0000000000000000000000000000000000000000000000000000000008152600401610ee990615530565b60405180910390fd5b610efc3382612d94565b50565b610f1a83838360405180602001604052806000815250612102565b505050565b610f27612b85565b73ffffffffffffffffffffffffffffffffffffffff16610f45611a41565b73ffffffffffffffffffffffffffffffffffffffff1614610f9b576040517f08c379a0000000000000000000000000000000000000000000000000000000008152600401610f92906156d0565b60405180910390fd5b8073ffffffffffffffffffffffffffffffffffffffff166108fc479081150290604051600060405180830381858888f19350505050158015610fe1573d6000803e3d6000fd5b5050565b610fed612b85565b73ffffffffffffffffffffffffffffffffffffffff1661100b611a41565b73ffffffffffffffffffffffffffffffffffffffff1614611061576040517f08c379a0000000000000000000000000000000000000000000000000000000008152600401611058906156d0565b60405180910390fd5b60005b8151811015611205576110c08282815181106110a9577f4e487b7100000000000000000000000000000000000000000000000000000000600052603260045260246000fd5b60200260200101516110bb60c9612d86565b612eee565b8181815181106110f9577f4e487b7100000000000000000000000000000000000000000000000000000000600052603260045260246000fd5b602002602001015160cd600061110f60c9612d86565b815260200190815260200160002060006101000a81548173ffffffffffffffffffffffffffffffffffffffff021916908373ffffffffffffffffffffffffffffffffffffffff160217905550818181518110611194577f4e487b7100000000000000000000000000000000000000000000000000000000600052603260045260246000fd5b602002602001015173ffffffffffffffffffffffffffffffffffffffff166111bc60c9612d86565b7ff3cea5493d790af0133817606f7350a91d7f154ea52eaa79d179d4d231e5010260405160405180910390a36111f260c9612f0c565b80806111fd90615bc9565b915050611064565b5050565b600060cb60059054906101000a900460ff16905090565b6000806099600084815260200190815260200160002060009054906101000a900473ffffffffffffffffffffffffffffffffffffffff169050600073ffffffffffffffffffffffffffffffffffffffff168173ffffffffffffffffffffffffffffffffffffffff1614156112c9576040517f08c379a00000000000000000000000000000000000000000000000000000000081526004016112c090615610565b60405180910390fd5b80915050919050565b60006112de60c9612d86565b905090565b60006112ef60c9612d86565b905060cf60003373ffffffffffffffffffffffffffffffffffffffff1673ffffffffffffffffffffffffffffffffffffffff16815260200190815260200160002060009054906101000a900460ff161561137e576040517f08c379a000000000000000000000000000000000000000000000000000000000815260040161137590615710565b60405180910390fd5b60cb60059054906101000a900460ff166113cd576040517f08c379a00000000000000000000000000000000000000000000000000000000081526004016113c490615590565b60405180910390fd5b60008260ff161180156113e4575060148260ff1611155b611423576040517f08c379a000000000000000000000000000000000000000000000000000000000815260040161141a90615430565b60405180910390fd5b60cb60029054906101000a900461ffff1661ffff168260ff16826114479190615915565b1115611488576040517f08c379a000000000000000000000000000000000000000000000000000000000815260040161147f906155d0565b60405180910390fd5b8160ff1667016345785d8a000061149f91906159f6565b67ffffffffffffffff1634146114ea576040517f08c379a00000000000000000000000000000000000000000000000000000000081526004016114e190615530565b60405180910390fd5b6114f43383612d94565b5050565b60008073ffffffffffffffffffffffffffffffffffffffff168273ffffffffffffffffffffffffffffffffffffffff161415611569576040517f08c379a0000000000000000000000000000000000000000000000000000000008152600401611560906155f0565b60405180910390fd5b609a60008373ffffffffffffffffffffffffffffffffffffffff1673ffffffffffffffffffffffffffffffffffffffff168152602001908152602001600020549050919050565b6115b8612b85565b73ffffffffffffffffffffffffffffffffffffffff166115d6611a41565b73ffffffffffffffffffffffffffffffffffffffff161461162c576040517f08c379a0000000000000000000000000000000000000000000000000000000008152600401611623906156d0565b60405180910390fd5b6116366000612f22565b565b600060019054906101000a900460ff168061165e575060008054906101000a900460ff16155b61169d576040517f08c379a000000000000000000000000000000000000000000000000000000000815260040161169490615630565b60405180910390fd5b60008060019054906101000a900460ff1615905080156116ed576001600060016101000a81548160ff02191690831515021790555060016000806101000a81548160ff0219169083151502179055505b6117616040518060400160405280600d81526020017f54686520576f6c66205061636b000000000000000000000000000000000000008152506040518060400160405280600481526020017f5750544b00000000000000000000000000000000000000000000000000000000815250612fe8565b6117696130dd565b61177360c9612f0c565b60cb60009054906101000a900461ffff1661151d6117919190615a38565b60cb60026101000a81548161ffff021916908361ffff160217905550600060cb60046101000a81548160ff021916908315150217905550600060cb60056101000a81548160ff02191690831515021790555061182d858580806020026020016040519081016040528093929190818152602001838360200280828437600081840152601f19601f82011690508083019250505050505050612808565b611877838380806020026020016040519081016040528093929190818152602001838360200280828437600081840152601f19601f82011690508083019250505050505050610fe5565b80156118985760008060016101000a81548160ff0219169083151502179055505b5050505050565b606060006118ad60c9612d86565b90508067ffffffffffffffff8111156118ef577f4e487b7100000000000000000000000000000000000000000000000000000000600052604160045260246000fd5b60405190808252806020026020018201604052801561191d5781602001602082028036833780820191505090505b50915060008114156119a157600067ffffffffffffffff81111561196a577f4e487b7100000000000000000000000000000000000000000000000000000000600052604160045260246000fd5b6040519080825280602002602001820160405280156119985781602001602082028036833780820191505090505b50915050611a3e565b60005b81811015611a3b576119b581612215565b8382815181106119ee577f4e487b7100000000000000000000000000000000000000000000000000000000600052603260045260246000fd5b602002602001019073ffffffffffffffffffffffffffffffffffffffff16908173ffffffffffffffffffffffffffffffffffffffff16815250508080611a3390615bc9565b9150506119a4565b50505b90565b6000603360009054906101000a900473ffffffffffffffffffffffffffffffffffffffff16905090565b606060988054611a7a90615b97565b80601f0160208091040260200160405190810160405280929190818152602001828054611aa690615b97565b8015611af35780601f10611ac857610100808354040283529160200191611af3565b820191906000526020600020905b815481529060010190602001808311611ad657829003601f168201915b5050505050905090565b611b05612b85565b73ffffffffffffffffffffffffffffffffffffffff16611b23611a41565b73ffffffffffffffffffffffffffffffffffffffff1614611b79576040517f08c379a0000000000000000000000000000000000000000000000000000000008152600401611b70906156d0565b60405180910390fd5b6096811115611bbd576040517f08c379a0000000000000000000000000000000000000000000000000000000008152600401611bb4906154b0565b60405180910390fd5b609681611bca60c9612d86565b611bd49190615915565b1115611c15576040517f08c379a0000000000000000000000000000000000000000000000000000000008152600401611c0c906154d0565b60405180910390fd5b60005b81811015611cf857611c3383611c2e60c9612d86565b612eee565b8260cd6000611c4260c9612d86565b815260200190815260200160002060006101000a81548173ffffffffffffffffffffffffffffffffffffffff021916908373ffffffffffffffffffffffffffffffffffffffff1602179055508273ffffffffffffffffffffffffffffffffffffffff16611caf60c9612d86565b7ff3cea5493d790af0133817606f7350a91d7f154ea52eaa79d179d4d231e5010260405160405180910390a3611ce560c9612f0c565b8080611cf090615bc9565b915050611c18565b505050565b611d05612b85565b73ffffffffffffffffffffffffffffffffffffffff16611d23611a41565b73ffffffffffffffffffffffffffffffffffffffff1614611d79576040517f08c379a0000000000000000000000000000000000000000000000000000000008152600401611d70906156d0565b60405180910390fd5b600160cf60008373ffffffffffffffffffffffffffffffffffffffff1673ffffffffffffffffffffffffffffffffffffffff16815260200190815260200160002060006101000a81548160ff02191690831515021790555050565b611ddc612b85565b73ffffffffffffffffffffffffffffffffffffffff168273ffffffffffffffffffffffffffffffffffffffff161415611e4a576040517f08c379a0000000000000000000000000000000000000000000000000000000008152600401611e4190615510565b60405180910390fd5b80609c6000611e57612b85565b73ffffffffffffffffffffffffffffffffffffffff1673ffffffffffffffffffffffffffffffffffffffff16815260200190815260200160002060008473ffffffffffffffffffffffffffffffffffffffff1673ffffffffffffffffffffffffffffffffffffffff16815260200190815260200160002060006101000a81548160ff0219169083151502179055508173ffffffffffffffffffffffffffffffffffffffff16611f04612b85565b73ffffffffffffffffffffffffffffffffffffffff167f17307eab39ab6107e8899845ad3d59bd9653f200f220920489ca2b5937696c3183604051611f4991906153f3565b60405180910390a35050565b611f5d612b85565b73ffffffffffffffffffffffffffffffffffffffff16611f7b611a41565b73ffffffffffffffffffffffffffffffffffffffff1614611fd1576040517f08c379a0000000000000000000000000000000000000000000000000000000008152600401611fc8906156d0565b60405180910390fd5b818160ca9190611fe2929190613e75565b505050565b611fef612b85565b73ffffffffffffffffffffffffffffffffffffffff1661200d611a41565b73ffffffffffffffffffffffffffffffffffffffff1614612063576040517f08c379a000000000000000000000000000000000000000000000000000000000815260040161205a906156d0565b60405180910390fd5b60cb60069054906101000a900473ffffffffffffffffffffffffffffffffffffffff1673ffffffffffffffffffffffffffffffffffffffff168173ffffffffffffffffffffffffffffffffffffffff1614156120be57600080fd5b8060cb60066101000a81548173ffffffffffffffffffffffffffffffffffffffff021916908373ffffffffffffffffffffffffffffffffffffffff16021790555050565b61211361210d612b85565b83612c46565b612152576040517f08c379a000000000000000000000000000000000000000000000000000000000815260040161214990615770565b60405180910390fd5b61215e848484846131c6565b50505050565b606061216f82612b19565b6121ae576040517f08c379a00000000000000000000000000000000000000000000000000000000081526004016121a590615730565b60405180910390fd5b600060ca80546121bd90615b97565b9050116121e257604051806080016040528060518152602001615d9b6051913961220e565b60ca6121ed8361322a565b6040516020016121fe9291906152fc565b6040516020818303038152906040525b9050919050565b600060cd600083815260200190815260200160002060009054906101000a900473ffffffffffffffffffffffffffffffffffffffff169050919050565b600060cc600083815260200190815260200160002060009054906101000a900473ffffffffffffffffffffffffffffffffffffffff169050919050565b6060600061229d60c9612d86565b90508067ffffffffffffffff8111156122df577f4e487b7100000000000000000000000000000000000000000000000000000000600052604160045260246000fd5b60405190808252806020026020018201604052801561230d5781602001602082028036833780820191505090505b509150600081141561239157600067ffffffffffffffff81111561235a577f4e487b7100000000000000000000000000000000000000000000000000000000600052604160045260246000fd5b6040519080825280602002602001820160405280156123885781602001602082028036833780820191505090505b5091505061242e565b60005b8181101561242b576123a581612215565b8382815181106123de577f4e487b7100000000000000000000000000000000000000000000000000000000600052603260045260246000fd5b602002602001019073ffffffffffffffffffffffffffffffffffffffff16908173ffffffffffffffffffffffffffffffffffffffff1681525050808061242390615bc9565b915050612394565b50505b90565b612439612b85565b73ffffffffffffffffffffffffffffffffffffffff16612457611a41565b73ffffffffffffffffffffffffffffffffffffffff16146124ad576040517f08c379a00000000000000000000000000000000000000000000000000000000081526004016124a4906156d0565b60405180910390fd5b80518251146124f1576040517f08c379a00000000000000000000000000000000000000000000000000000000081526004016124e890615550565b60405180910390fd5b60005b82518110156125e257828181518110612536577f4e487b7100000000000000000000000000000000000000000000000000000000600052603260045260246000fd5b602002602001015160cc600084848151811061257b577f4e487b7100000000000000000000000000000000000000000000000000000000600052603260045260246000fd5b6020026020010151815260200190815260200160002060006101000a81548173ffffffffffffffffffffffffffffffffffffffff021916908373ffffffffffffffffffffffffffffffffffffffff16021790555080806125da90615bc9565b9150506124f4565b505050565b6125ef612b85565b73ffffffffffffffffffffffffffffffffffffffff1661260d611a41565b73ffffffffffffffffffffffffffffffffffffffff1614612663576040517f08c379a000000000000000000000000000000000000000000000000000000000815260040161265a906156d0565b60405180910390fd5b60cb60049054906101000a900460ff161560cb60046101000a81548160ff02191690831515021790555061269760c9612d86565b60cb60006101000a81548161ffff021916908361ffff160217905550565b6126bd612b85565b73ffffffffffffffffffffffffffffffffffffffff166126db611a41565b73ffffffffffffffffffffffffffffffffffffffff1614612731576040517f08c379a0000000000000000000000000000000000000000000000000000000008152600401612728906156d0565b60405180910390fd5b60cb60059054906101000a900460ff161560cb60056101000a81548160ff021916908315150217905550565b600060cb60049054906101000a900460ff16905090565b6000609c60008473ffffffffffffffffffffffffffffffffffffffff1673ffffffffffffffffffffffffffffffffffffffff16815260200190815260200160002060008373ffffffffffffffffffffffffffffffffffffffff1673ffffffffffffffffffffffffffffffffffffffff16815260200190815260200160002060009054906101000a900460ff16905092915050565b612810612b85565b73ffffffffffffffffffffffffffffffffffffffff1661282e611a41565b73ffffffffffffffffffffffffffffffffffffffff1614612884576040517f08c379a000000000000000000000000000000000000000000000000000000000815260040161287b906156d0565b60405180910390fd5b60005b815181101561293b57600160ce60008484815181106128cf577f4e487b7100000000000000000000000000000000000000000000000000000000600052603260045260246000fd5b602002602001015173ffffffffffffffffffffffffffffffffffffffff1673ffffffffffffffffffffffffffffffffffffffff16815260200190815260200160002060006101000a81548160ff021916908315150217905550808061293390615bc9565b915050612887565b5050565b612947612b85565b73ffffffffffffffffffffffffffffffffffffffff16612965611a41565b73ffffffffffffffffffffffffffffffffffffffff16146129bb576040517f08c379a00000000000000000000000000000000000000000000000000000000081526004016129b2906156d0565b60405180910390fd5b600073ffffffffffffffffffffffffffffffffffffffff168173ffffffffffffffffffffffffffffffffffffffff161415612a2b576040517f08c379a0000000000000000000000000000000000000000000000000000000008152600401612a2290615470565b60405180910390fd5b612a3481612f22565b50565b60007f80ac58cd000000000000000000000000000000000000000000000000000000007bffffffffffffffffffffffffffffffffffffffffffffffffffffffff1916827bffffffffffffffffffffffffffffffffffffffffffffffffffffffff19161480612b0257507f5b5e139f000000000000000000000000000000000000000000000000000000007bffffffffffffffffffffffffffffffffffffffffffffffffffffffff1916827bffffffffffffffffffffffffffffffffffffffffffffffffffffffff1916145b80612b125750612b11826133d7565b5b9050919050565b60008073ffffffffffffffffffffffffffffffffffffffff166099600084815260200190815260200160002060009054906101000a900473ffffffffffffffffffffffffffffffffffffffff1673ffffffffffffffffffffffffffffffffffffffff1614159050919050565b600033905090565b81609b600083815260200190815260200160002060006101000a81548173ffffffffffffffffffffffffffffffffffffffff021916908373ffffffffffffffffffffffffffffffffffffffff160217905550808273ffffffffffffffffffffffffffffffffffffffff16612c0083611220565b73ffffffffffffffffffffffffffffffffffffffff167f8c5be1e5ebec7d5bd14f71427d1e84f3dd0314c0f7b2291e5b200ac8c7c3b92560405160405180910390a45050565b6000612c5182612b19565b612c90576040517f08c379a0000000000000000000000000000000000000000000000000000000008152600401612c8790615570565b60405180910390fd5b6000612c9b83611220565b90508073ffffffffffffffffffffffffffffffffffffffff168473ffffffffffffffffffffffffffffffffffffffff161480612d0a57508373ffffffffffffffffffffffffffffffffffffffff16612cf2846109d5565b73ffffffffffffffffffffffffffffffffffffffff16145b80612d1b5750612d1a8185612774565b5b91505092915050565b8160cd600083815260200190815260200160002060006101000a81548173ffffffffffffffffffffffffffffffffffffffff021916908373ffffffffffffffffffffffffffffffffffffffff160217905550612d81838383613441565b505050565b600081600001549050919050565b60005b8160ff16811015612ee95761151d612daf60c9612d86565b1015612ed6578260cc6000612dc460c9612d86565b815260200190815260200160002060006101000a81548173ffffffffffffffffffffffffffffffffffffffff021916908373ffffffffffffffffffffffffffffffffffffffff1602179055508260cd6000612e1f60c9612d86565b815260200190815260200160002060006101000a81548173ffffffffffffffffffffffffffffffffffffffff021916908373ffffffffffffffffffffffffffffffffffffffff160217905550612e7e83612e7960c9612d86565b612eee565b8273ffffffffffffffffffffffffffffffffffffffff16612e9f60c9612d86565b7ff3cea5493d790af0133817606f7350a91d7f154ea52eaa79d179d4d231e5010260405160405180910390a3612ed560c9612f0c565b5b8080612ee190615bc9565b915050612d97565b505050565b612f0882826040518060200160405280600081525061369d565b5050565b6001816000016000828254019250508190555050565b6000603360009054906101000a900473ffffffffffffffffffffffffffffffffffffffff16905081603360006101000a81548173ffffffffffffffffffffffffffffffffffffffff021916908373ffffffffffffffffffffffffffffffffffffffff1602179055508173ffffffffffffffffffffffffffffffffffffffff168173ffffffffffffffffffffffffffffffffffffffff167f8be0079c531659141344cd1fd0a4f28419497f9722a3daafe3b4186f6b6457e060405160405180910390a35050565b600060019054906101000a900460ff168061300e575060008054906101000a900460ff16155b61304d576040517f08c379a000000000000000000000000000000000000000000000000000000000815260040161304490615630565b60405180910390fd5b60008060019054906101000a900460ff16159050801561309d576001600060016101000a81548160ff02191690831515021790555060016000806101000a81548160ff0219169083151502179055505b6130a56136f8565b6130ad6137d1565b6130b783836138aa565b80156130d85760008060016101000a81548160ff0219169083151502179055505b505050565b600060019054906101000a900460ff1680613103575060008054906101000a900460ff16155b613142576040517f08c379a000000000000000000000000000000000000000000000000000000000815260040161313990615630565b60405180910390fd5b60008060019054906101000a900460ff161590508015613192576001600060016101000a81548160ff02191690831515021790555060016000806101000a81548160ff0219169083151502179055505b61319a6136f8565b6131a26139b3565b80156131c35760008060016101000a81548160ff0219169083151502179055505b50565b8260cd600084815260200190815260200160002060006101000a81548173ffffffffffffffffffffffffffffffffffffffff021916908373ffffffffffffffffffffffffffffffffffffffff16021790555061322484848484613a9c565b50505050565b60606000821415613272576040518060400160405280600181526020017f300000000000000000000000000000000000000000000000000000000000000081525090506133d2565b600082905060005b600082146132a457808061328d90615bc9565b915050600a8261329d919061596b565b915061327a565b60008167ffffffffffffffff8111156132e6577f4e487b7100000000000000000000000000000000000000000000000000000000600052604160045260246000fd5b6040519080825280601f01601f1916602001820160405280156133185781602001600182028036833780820191505090505b5090505b600085146133cb576001826133319190615a6c565b9150600a856133409190615c12565b603061334c9190615915565b60f81b818381518110613388577f4e487b7100000000000000000000000000000000000000000000000000000000600052603260045260246000fd5b60200101907effffffffffffffffffffffffffffffffffffffffffffffffffffffffffffff1916908160001a905350600a856133c4919061596b565b945061331c565b8093505050505b919050565b60007f01ffc9a7000000000000000000000000000000000000000000000000000000007bffffffffffffffffffffffffffffffffffffffffffffffffffffffff1916827bffffffffffffffffffffffffffffffffffffffffffffffffffffffff1916149050919050565b8273ffffffffffffffffffffffffffffffffffffffff1661346182611220565b73ffffffffffffffffffffffffffffffffffffffff16146134b7576040517f08c379a00000000000000000000000000000000000000000000000000000000081526004016134ae906156f0565b60405180910390fd5b600073ffffffffffffffffffffffffffffffffffffffff168273ffffffffffffffffffffffffffffffffffffffff161415613527576040517f08c379a000000000000000000000000000000000000000000000000000000000815260040161351e906154f0565b60405180910390fd5b613532838383613af8565b61353d600082612b8d565b6001609a60008573ffffffffffffffffffffffffffffffffffffffff1673ffffffffffffffffffffffffffffffffffffffff168152602001908152602001600020600082825461358d9190615a6c565b925050819055506001609a60008473ffffffffffffffffffffffffffffffffffffffff1673ffffffffffffffffffffffffffffffffffffffff16815260200190815260200160002060008282546135e49190615915565b92505081905550816099600083815260200190815260200160002060006101000a81548173ffffffffffffffffffffffffffffffffffffffff021916908373ffffffffffffffffffffffffffffffffffffffff160217905550808273ffffffffffffffffffffffffffffffffffffffff168473ffffffffffffffffffffffffffffffffffffffff167fddf252ad1be2c89b69c2b068fc378daa952ba7f163c4a11628f55a4df523b3ef60405160405180910390a4505050565b6136a78383613afd565b6136b46000848484613ccb565b6136f3576040517f08c379a00000000000000000000000000000000000000000000000000000000081526004016136ea90615450565b60405180910390fd5b505050565b600060019054906101000a900460ff168061371e575060008054906101000a900460ff16155b61375d576040517f08c379a000000000000000000000000000000000000000000000000000000000815260040161375490615630565b60405180910390fd5b60008060019054906101000a900460ff1615905080156137ad576001600060016101000a81548160ff02191690831515021790555060016000806101000a81548160ff0219169083151502179055505b80156137ce5760008060016101000a81548160ff0219169083151502179055505b50565b600060019054906101000a900460ff16806137f7575060008054906101000a900460ff16155b613836576040517f08c379a000000000000000000000000000000000000000000000000000000000815260040161382d90615630565b60405180910390fd5b60008060019054906101000a900460ff161590508015613886576001600060016101000a81548160ff02191690831515021790555060016000806101000a81548160ff0219169083151502179055505b80156138a75760008060016101000a81548160ff0219169083151502179055505b50565b600060019054906101000a900460ff16806138d0575060008054906101000a900460ff16155b61390f576040517f08c379a000000000000000000000000000000000000000000000000000000000815260040161390690615630565b60405180910390fd5b60008060019054906101000a900460ff16159050801561395f576001600060016101000a81548160ff02191690831515021790555060016000806101000a81548160ff0219169083151502179055505b8260979080519060200190613975929190613efb565b50816098908051906020019061398c929190613efb565b5080156139ae5760008060016101000a81548160ff0219169083151502179055505b505050565b600060019054906101000a900460ff16806139d9575060008054906101000a900460ff16155b613a18576040517f08c379a0000000000000000000000000000000000000000000000000000000008152600401613a0f90615630565b60405180910390fd5b60008060019054906101000a900460ff161590508015613a68576001600060016101000a81548160ff02191690831515021790555060016000806101000a81548160ff0219169083151502179055505b613a78613a73612b85565b612f22565b8015613a995760008060016101000a81548160ff0219169083151502179055505b50565b613aa7848484612d24565b613ab384848484613ccb565b613af2576040517f08c379a0000000000000000000000000000000000000000000000000000000008152600401613ae990615450565b60405180910390fd5b50505050565b505050565b600073ffffffffffffffffffffffffffffffffffffffff168273ffffffffffffffffffffffffffffffffffffffff161415613b6d576040517f08c379a0000000000000000000000000000000000000000000000000000000008152600401613b6490615650565b60405180910390fd5b613b7681612b19565b15613bb6576040517f08c379a0000000000000000000000000000000000000000000000000000000008152600401613bad90615490565b60405180910390fd5b613bc260008383613af8565b6001609a60008473ffffffffffffffffffffffffffffffffffffffff1673ffffffffffffffffffffffffffffffffffffffff1681526020019081526020016000206000828254613c129190615915565b92505081905550816099600083815260200190815260200160002060006101000a81548173ffffffffffffffffffffffffffffffffffffffff021916908373ffffffffffffffffffffffffffffffffffffffff160217905550808273ffffffffffffffffffffffffffffffffffffffff16600073ffffffffffffffffffffffffffffffffffffffff167fddf252ad1be2c89b69c2b068fc378daa952ba7f163c4a11628f55a4df523b3ef60405160405180910390a45050565b6000613cec8473ffffffffffffffffffffffffffffffffffffffff16613e62565b15613e55578373ffffffffffffffffffffffffffffffffffffffff1663150b7a02613d15612b85565b8786866040518563ffffffff1660e01b8152600401613d37949392919061535c565b602060405180830381600087803b158015613d5157600080fd5b505af1925050508015613d8257506040513d601f19601f82011682018060405250810190613d7f9190614574565b60015b613e05573d8060008114613db2576040519150601f19603f3d011682016040523d82523d6000602084013e613db7565b606091505b50600081511415613dfd576040517f08c379a0000000000000000000000000000000000000000000000000000000008152600401613df490615450565b60405180910390fd5b805181602001fd5b63150b7a0260e01b7bffffffffffffffffffffffffffffffffffffffffffffffffffffffff1916817bffffffffffffffffffffffffffffffffffffffffffffffffffffffff191614915050613e5a565b600190505b949350505050565b600080823b905060008111915050919050565b828054613e8190615b97565b90600052602060002090601f016020900481019282613ea35760008555613eea565b82601f10613ebc57803560ff1916838001178555613eea565b82800160010185558215613eea579182015b82811115613ee9578235825591602001919060010190613ece565b5b509050613ef79190613f81565b5090565b828054613f0790615b97565b90600052602060002090601f016020900481019282613f295760008555613f70565b82601f10613f4257805160ff1916838001178555613f70565b82800160010185558215613f70579182015b82811115613f6f578251825591602001919060010190613f54565b5b509050613f7d9190613f81565b5090565b5b80821115613f9a576000816000905550600101613f82565b5090565b6000613fb1613fac846157fc565b6157cb565b90508083825260208201905082856020860282011115613fd057600080fd5b60005b858110156140005781613fe688826140b4565b845260208401935060208301925050600181019050613fd3565b5050509392505050565b600061401d61401884615828565b6157cb565b9050808382526020820190508285602086028201111561403c57600080fd5b60005b8581101561406c5781614052888261422f565b84526020840193506020830192505060018101905061403f565b5050509392505050565b600061408961408484615854565b6157cb565b9050828152602081018484840111156140a157600080fd5b6140ac848285615b55565b509392505050565b6000813590506140c381615d10565b92915050565b6000813590506140d881615d27565b92915050565b60008083601f8401126140f057600080fd5b8235905067ffffffffffffffff81111561410957600080fd5b60208301915083602082028301111561412157600080fd5b9250929050565b600082601f83011261413957600080fd5b8135614149848260208601613f9e565b91505092915050565b600082601f83011261416357600080fd5b813561417384826020860161400a565b91505092915050565b60008135905061418b81615d3e565b92915050565b6000813590506141a081615d55565b92915050565b6000815190506141b581615d55565b92915050565b600082601f8301126141cc57600080fd5b81356141dc848260208601614076565b91505092915050565b60008083601f8401126141f757600080fd5b8235905067ffffffffffffffff81111561421057600080fd5b60208301915083600182028301111561422857600080fd5b9250929050565b60008135905061423e81615d6c565b92915050565b60008135905061425381615d83565b92915050565b60006020828403121561426b57600080fd5b6000614279848285016140b4565b91505092915050565b60006020828403121561429457600080fd5b60006142a2848285016140c9565b91505092915050565b600080604083850312156142be57600080fd5b60006142cc858286016140b4565b92505060206142dd858286016140b4565b9150509250929050565b6000806000606084860312156142fc57600080fd5b600061430a868287016140b4565b935050602061431b868287016140b4565b925050604061432c8682870161422f565b9150509250925092565b6000806000806080858703121561434c57600080fd5b600061435a878288016140b4565b945050602061436b878288016140b4565b935050604061437c8782880161422f565b925050606085013567ffffffffffffffff81111561439957600080fd5b6143a5878288016141bb565b91505092959194509250565b600080604083850312156143c457600080fd5b60006143d2858286016140b4565b92505060206143e38582860161417c565b9150509250929050565b6000806040838503121561440057600080fd5b600061440e858286016140b4565b925050602061441f8582860161422f565b9150509250929050565b6000806000806040858703121561443f57600080fd5b600085013567ffffffffffffffff81111561445957600080fd5b614465878288016140de565b9450945050602085013567ffffffffffffffff81111561448457600080fd5b614490878288016140de565b925092505092959194509250565b6000602082840312156144b057600080fd5b600082013567ffffffffffffffff8111156144ca57600080fd5b6144d684828501614128565b91505092915050565b600080604083850312156144f257600080fd5b600083013567ffffffffffffffff81111561450c57600080fd5b61451885828601614128565b925050602083013567ffffffffffffffff81111561453557600080fd5b61454185828601614152565b9150509250929050565b60006020828403121561455d57600080fd5b600061456b84828501614191565b91505092915050565b60006020828403121561458657600080fd5b6000614594848285016141a6565b91505092915050565b600080602083850312156145b057600080fd5b600083013567ffffffffffffffff8111156145ca57600080fd5b6145d6858286016141e5565b92509250509250929050565b6000602082840312156145f457600080fd5b60006146028482850161422f565b91505092915050565b6000806040838503121561461e57600080fd5b600061462c8582860161422f565b925050602061463d8582860161422f565b9150509250929050565b60006020828403121561465957600080fd5b600061466784828501614244565b91505092915050565b600061467c8383614688565b60208301905092915050565b61469181615aa0565b82525050565b6146a081615aa0565b82525050565b60006146b1826158a9565b6146bb81856158d7565b93506146c683615884565b8060005b838110156146f75781516146de8882614670565b97506146e9836158ca565b9250506001810190506146ca565b5085935050505092915050565b61470d81615ac4565b82525050565b600061471e826158b4565b61472881856158e8565b9350614738818560208601615b64565b61474181615cff565b840191505092915050565b6000614757826158bf565b61476181856158f9565b9350614771818560208601615b64565b61477a81615cff565b840191505092915050565b6000614790826158bf565b61479a818561590a565b93506147aa818560208601615b64565b80840191505092915050565b600081546147c381615b97565b6147cd818661590a565b945060018216600081146147e857600181146147f95761482c565b60ff1983168652818601935061482c565b61480285615894565b60005b8381101561482457815481890152600182019150602081019050614805565b838801955050505b50505092915050565b60006148426025836158f9565b91507f45786365656473204d6178696d756d204d696e747320506572205472616e736160008301527f6374696f6e0000000000000000000000000000000000000000000000000000006020830152604082019050919050565b60006148a86032836158f9565b91507f4552433732313a207472616e7366657220746f206e6f6e20455243373231526560008301527f63656976657220696d706c656d656e74657200000000000000000000000000006020830152604082019050919050565b600061490e6026836158f9565b91507f4f776e61626c653a206e6577206f776e657220697320746865207a65726f206160008301527f64647265737300000000000000000000000000000000000000000000000000006020830152604082019050919050565b6000614974601c836158f9565b91507f4552433732313a20746f6b656e20616c7265616479206d696e746564000000006000830152602082019050919050565b60006149b46022836158f9565b91507f416d6f756e742077696c6c20657863656564207265736572766520616d6f756e60008301527f74210000000000000000000000000000000000000000000000000000000000006020830152604082019050919050565b6000614a1a6030836158f9565b91507f507572636861736520776f756c6420657863656564206d617820737570706c7960008301527f206f6620546865207265736572766521000000000000000000000000000000006020830152604082019050919050565b6000614a806024836158f9565b91507f4552433732313a207472616e7366657220746f20746865207a65726f2061646460008301527f72657373000000000000000000000000000000000000000000000000000000006020830152604082019050919050565b6000614ae66019836158f9565b91507f4552433732313a20617070726f766520746f2063616c6c6572000000000000006000830152602082019050919050565b6000614b26601f836158f9565b91507f45746865722076616c75652073656e74206973206e6f7420636f7272656374006000830152602082019050919050565b6000614b66602c836158f9565b91507f4172726179206c656e677468206d6973736d617463682120506c65617365207660008301527f657269667920696e7075747300000000000000000000000000000000000000006020830152604082019050919050565b6000614bcc602c836158f9565b91507f4552433732313a206f70657261746f7220717565727920666f72206e6f6e657860008301527f697374656e7420746f6b656e00000000000000000000000000000000000000006020830152604082019050919050565b6000614c326020836158f9565b91507f53616c65206d7573742062652061637469766520746f206d696e7420576f6c666000830152602082019050919050565b6000614c7260078361590a565b91507f697066733a2f2f000000000000000000000000000000000000000000000000006000830152600782019050919050565b6000614cb26038836158f9565b91507f4552433732313a20617070726f76652063616c6c6572206973206e6f74206f7760008301527f6e6572206e6f7220617070726f76656420666f7220616c6c00000000000000006020830152604082019050919050565b6000614d18602c836158f9565b91507f507572636861736520576f756c6420457863656564204d617820537570706c7960008301527f206f6620546865205061636b00000000000000000000000000000000000000006020830152604082019050919050565b6000614d7e602a836158f9565b91507f4552433732313a2062616c616e636520717565727920666f7220746865207a6560008301527f726f2061646472657373000000000000000000000000000000000000000000006020830152604082019050919050565b6000614de46029836158f9565b91507f4552433732313a206f776e657220717565727920666f72206e6f6e657869737460008301527f656e7420746f6b656e00000000000000000000000000000000000000000000006020830152604082019050919050565b6000614e4a602e836158f9565b91507f496e697469616c697a61626c653a20636f6e747261637420697320616c72656160008301527f647920696e697469616c697a65640000000000000000000000000000000000006020830152604082019050919050565b6000614eb06020836158f9565b91507f4552433732313a206d696e7420746f20746865207a65726f20616464726573736000830152602082019050919050565b6000614ef06017836158f9565b91507f596f7520617265206e6f742077686974656c69737465640000000000000000006000830152602082019050919050565b6000614f30602a836158f9565b91507f507572636861736520576f756c6420457863656564204d617820507265204d6960008301527f6e7420537570706c7921000000000000000000000000000000000000000000006020830152604082019050919050565b6000614f96602c836158f9565b91507f4552433732313a20617070726f76656420717565727920666f72206e6f6e657860008301527f697374656e7420746f6b656e00000000000000000000000000000000000000006020830152604082019050919050565b6000614ffc60058361590a565b91507f2e6a736f6e0000000000000000000000000000000000000000000000000000006000830152600582019050919050565b600061503c6020836158f9565b91507f4f776e61626c653a2063616c6c6572206973206e6f7420746865206f776e65726000830152602082019050919050565b600061507c6029836158f9565b91507f4552433732313a207472616e73666572206f6620746f6b656e2074686174206960008301527f73206e6f74206f776e00000000000000000000000000000000000000000000006020830152604082019050919050565b60006150e26013836158f9565b91507f596f752061726520626c61636b6c6973746564000000000000000000000000006000830152602082019050919050565b6000615122602f836158f9565b91507f4552433732314d657461646174613a2055524920717565727920666f72206e6f60008301527f6e6578697374656e7420746f6b656e00000000000000000000000000000000006020830152604082019050919050565b60006151886021836158f9565b91507f4552433732313a20617070726f76616c20746f2063757272656e74206f776e6560008301527f72000000000000000000000000000000000000000000000000000000000000006020830152604082019050919050565b60006151ee6031836158f9565b91507f4552433732313a207472616e736665722063616c6c6572206973206e6f74206f60008301527f776e6572206e6f7220617070726f7665640000000000000000000000000000006020830152604082019050919050565b6000615254603a836158f9565b91507f45524332393831526f79616c74795374616e646172643a20526f79616c74792060008301527f696e666f20666f72206e6f6e6578697374656e7420746f6b656e0000000000006020830152604082019050919050565b60006152ba60018361590a565b91507f2f000000000000000000000000000000000000000000000000000000000000006000830152600182019050919050565b6152f681615b2a565b82525050565b600061530782614c65565b915061531382856147b6565b915061531e826152ad565b915061532a8284614785565b915061533582614fef565b91508190509392505050565b60006020820190506153566000830184614697565b92915050565b60006080820190506153716000830187614697565b61537e6020830186614697565b61538b60408301856152ed565b818103606083015261539d8184614713565b905095945050505050565b60006040820190506153bd6000830185614697565b6153ca60208301846152ed565b9392505050565b600060208201905081810360008301526153eb81846146a6565b905092915050565b60006020820190506154086000830184614704565b92915050565b60006020820190508181036000830152615428818461474c565b905092915050565b6000602082019050818103600083015261544981614835565b9050919050565b600060208201905081810360008301526154698161489b565b9050919050565b6000602082019050818103600083015261548981614901565b9050919050565b600060208201905081810360008301526154a981614967565b9050919050565b600060208201905081810360008301526154c9816149a7565b9050919050565b600060208201905081810360008301526154e981614a0d565b9050919050565b6000602082019050818103600083015261550981614a73565b9050919050565b6000602082019050818103600083015261552981614ad9565b9050919050565b6000602082019050818103600083015261554981614b19565b9050919050565b6000602082019050818103600083015261556981614b59565b9050919050565b6000602082019050818103600083015261558981614bbf565b9050919050565b600060208201905081810360008301526155a981614c25565b9050919050565b600060208201905081810360008301526155c981614ca5565b9050919050565b600060208201905081810360008301526155e981614d0b565b9050919050565b6000602082019050818103600083015261560981614d71565b9050919050565b6000602082019050818103600083015261562981614dd7565b9050919050565b6000602082019050818103600083015261564981614e3d565b9050919050565b6000602082019050818103600083015261566981614ea3565b9050919050565b6000602082019050818103600083015261568981614ee3565b9050919050565b600060208201905081810360008301526156a981614f23565b9050919050565b600060208201905081810360008301526156c981614f89565b9050919050565b600060208201905081810360008301526156e98161502f565b9050919050565b600060208201905081810360008301526157098161506f565b9050919050565b60006020820190508181036000830152615729816150d5565b9050919050565b6000602082019050818103600083015261574981615115565b9050919050565b600060208201905081810360008301526157698161517b565b9050919050565b60006020820190508181036000830152615789816151e1565b9050919050565b600060208201905081810360008301526157a981615247565b9050919050565b60006020820190506157c560008301846152ed565b92915050565b6000604051905081810181811067ffffffffffffffff821117156157f2576157f1615cd0565b5b8060405250919050565b600067ffffffffffffffff82111561581757615816615cd0565b5b602082029050602081019050919050565b600067ffffffffffffffff82111561584357615842615cd0565b5b602082029050602081019050919050565b600067ffffffffffffffff82111561586f5761586e615cd0565b5b601f19601f8301169050602081019050919050565b6000819050602082019050919050565b60008190508160005260206000209050919050565b600081519050919050565b600081519050919050565b600081519050919050565b6000602082019050919050565b600082825260208201905092915050565b600082825260208201905092915050565b600082825260208201905092915050565b600081905092915050565b600061592082615b2a565b915061592b83615b2a565b9250827fffffffffffffffffffffffffffffffffffffffffffffffffffffffffffffffff038211156159605761595f615c43565b5b828201905092915050565b600061597682615b2a565b915061598183615b2a565b92508261599157615990615c72565b5b828204905092915050565b60006159a782615b2a565b91506159b283615b2a565b9250817fffffffffffffffffffffffffffffffffffffffffffffffffffffffffffffffff04831182151516156159eb576159ea615c43565b5b828202905092915050565b6000615a0182615b34565b9150615a0c83615b34565b92508167ffffffffffffffff0483118215151615615a2d57615a2c615c43565b5b828202905092915050565b6000615a4382615afc565b9150615a4e83615afc565b925082821015615a6157615a60615c43565b5b828203905092915050565b6000615a7782615b2a565b9150615a8283615b2a565b925082821015615a9557615a94615c43565b5b828203905092915050565b6000615aab82615b0a565b9050919050565b6000615abd82615b0a565b9050919050565b60008115159050919050565b60007fffffffff0000000000000000000000000000000000000000000000000000000082169050919050565b600061ffff82169050919050565b600073ffffffffffffffffffffffffffffffffffffffff82169050919050565b6000819050919050565b600067ffffffffffffffff82169050919050565b600060ff82169050919050565b82818337600083830152505050565b60005b83811015615b82578082015181840152602081019050615b67565b83811115615b91576000848401525b50505050565b60006002820490506001821680615baf57607f821691505b60208210811415615bc357615bc2615ca1565b5b50919050565b6000615bd482615b2a565b91507fffffffffffffffffffffffffffffffffffffffffffffffffffffffffffffffff821415615c0757615c06615c43565b5b600182019050919050565b6000615c1d82615b2a565b9150615c2883615b2a565b925082615c3857615c37615c72565b5b828206905092915050565b7f4e487b7100000000000000000000000000000000000000000000000000000000600052601160045260246000fd5b7f4e487b7100000000000000000000000000000000000000000000000000000000600052601260045260246000fd5b7f4e487b7100000000000000000000000000000000000000000000000000000000600052602260045260246000fd5b7f4e487b7100000000000000000000000000000000000000000000000000000000600052604160045260246000fd5b6000601f19601f8301169050919050565b615d1981615aa0565b8114615d2457600080fd5b50565b615d3081615ab2565b8114615d3b57600080fd5b50565b615d4781615ac4565b8114615d5257600080fd5b50565b615d5e81615ad0565b8114615d6957600080fd5b50565b615d7581615b2a565b8114615d8057600080fd5b50565b615d8c81615b48565b8114615d9757600080fd5b5056fe68747470733a2f2f697066732e696f2f697066732f6261666b726569666e743337767466676f35336d6672666e366f697064787a70637870336f636f756d757575756b676f696a6b37656933697376692fa2646970667358221220a24e1781e0819f3c76b79620575083f518068aa423027b6f81f6c41875589d0964736f6c63430008000033",
  "linkReferences": {},
  "deployedLinkReferences": {}
}